:100000006F00607613000000130000001300000072
:100010001300000013000000130000001300000094
:100020001300000013000000130000001300000084
:08003000130000007300100032
:100038000000000000000000F807000008080000A9
:1000480000000000AC0600000000000000000000F6
:10005800AE060000B006000000000000000000002E
:10006800EA5000000000000000020000000000004C
:10007800B6060000B8060000BA060000BC0600007C
:10008800BE060000C0060000C2060000C40600004C
:10009800C6060000C8060000CA060000CC0600001C
:1000A800CE060000D0060000D2060000D4060000EC
:1000B800D6060000D8060000DA060000DC060000BC
:1000C800DE060000E0060000E2060000E40600008C
:1000D800E6060000E8060000EA060000EC0600005C
:1000E800EE060000F0060000F2060000F40600002C
:1000F800F6060000F8060000FA060000FC060000FC
:10010800FE060000000700000207000004070000C8
:1001180006070000080700000A0700000C07000097
:100128000E07000010070000120700001407000067
:1001380016070000180700001A0700001C07000037
:100148001E07000020070000220700002407000007
:1001580026070000280700002A0700002C070000D7
:100168002E07000056110000320700003407000077
:1001780036070000380700003A0700003C07000077
:100188003E07000040070000420700004407000047
:1001980046070000480700004A0700004C07000017
:1001A8004E070000500700005207000054070000E7
:1001B80056070000580700005A0700005C070000B7
:1001C8005E07000060070000620700006407000087
:1001D8000000000000000000000000000000000017
:1001E8000000000000000000000000000000000007
:0801F8000000000000000000FF
:10020000130181F806C216C41AC61EC822CA26CC1B
:100210002ACE2ED032D236D43AD63ED842DA46DC76
:100220004ADECEC0D2C2D6C4DAC6DEC8E2CAE6CC46
:10023000EACEEED0F2D2F6D4FAD6FED8F3220030CF
:1002400096DA9702002083A2220023A02200F32541
:1002500010342EC09305000273A0458003A1C18213
:10026000EF30300D17030020032303FE03210300AA
:10027000824273901234D652739002309240A2425E
:100280003243C2435244E244724582551256A2564A
:100290003257C2575258E25872598649164AA64AEE
:1002A000364BC64B564CE64C764D865D165EA65ECA
:1002B000365FC65F13018107730020301300000012
:1002C00013000000130000001300000013000000E2
:1002D00013000000130000001300000013000000D2
:1002E00013000000130000001300000013000000C2
:1002F00013000000130000001300000013000000B2
:1003000083A2C182938202E073900234170100201D
:10031000032181F3024182403243C2435244E2440A
:10032000724582551256A2563257C2575258E25859
:1003300072598649164AA64A364BC64B564CE64C6D
:10034000764D865D165EA65E365FC65FD652A1020A
:1003500073900230A24213018107828013000000D3
:100360001300000013000000130000001300000041
:100370001300000013000000130000001300000031
:100380001300000013000000130000001300000021
:100390001300000013000000130000001300000011
:1003A0001300000013000000130000001300000001
:1003B00013000000130000001300000013000000F1
:1003C00013000000130000001300000013000000E1
:1003D00013000000130000001300000013000000D1
:1003E00013000000130000001300000013000000C1
:1003F00013000000130000001300000013000000B1
:10040000F322003093F272FF130380781203B3E2F9
:100410006200711523205500130585FA10C12115BE
:10042000232005009302000063870200711523203A
:100430000500FD12D5BF71150CC1828000000000BF
:1004400000000000000000000000000000000000AC
:10045000000000000000000000000000000000009C
:10046000000000000000000000000000000000008C
:10047000000000000000000000000000000000007C
:10048000000000000000000000000000000000006C
:10049000000000000000000000000000000000005C
:1004A000000000000000000000000000000000004C
:1004B000000000000000000000000000000000003C
:1004C000000000000000000000000000000000002C
:1004D000000000000000000000000000000000001C
:1004E0000000000000003D432A876373C302937736
:1004F000F700BDEFADE5937606FF3D8ABA960CC3D3
:100500004CC30CC74CC74107E36BD7FE11E2828096
:10051000B306C3408A069702000096966780A6003D
:100520002307B700A306B7002306B700A305B7004B
:100530002305B700A304B7002304B700A303B70043
:100540002303B700A302B7002302B700A301B7003B
:100550002301B700A300B7002300B700828093F502
:10056000F50F93968500D58D93960501D58D61B7CE
:10057000939627009702000096968682E78086FA77
:100580009680C1171D8F3E96E374C3F8A5B73367F5
:10059000B500FD530D8B79E7B7877F7F9387F7F71A
:1005A00010419441B372F6003363F600BE92B3E299
:1005B00062006395720C6318D6065041D441B37241
:1005C000F6003363F600BE92B3E262006396720AED
:1005D000631BD60410459445B372F6003363F600EE
:1005E000BE92B3E26200639F7208631ED60250455A
:1005F000D445B372F6003363F600BE92B3E26200F4
:10060000639872086311D60210499449B372F600D8
:100610003363F600BE92B3E2620063917208510543
:10062000D105E30FD6F61317060193970601631C55
:10063000F7001357060193D706013305F74093756A
:10064000F50F91E982804183C1833305F7409375AB
:10065000F50F91E182801377F70F93F7F70F3305CA
:10066000F740828010219421050585056313D6008B
:1006700075FA3305D640828011059105E314D6FE44
:10068000014582802105A105E31ED6FC014582803B
:100690003105B105E318D6FC014582804105C1054D
:1006A000E312D6FC0145828001A001A001A001A0B7
:1006B00001A001A001A001A001A001A001A001A032
:1006C00001A001A001A001A001A001A001A001A022
:1006D00001A001A001A001A001A001A001A001A012
:1006E00001A001A001A001A001A001A001A001A002
:1006F00001A001A001A001A001A001A001A001A0F2
:1007000001A001A001A001A001A001A001A001A0E1
:1007100001A001A001A001A001A001A001A001A0D1
:1007200001A001A001A001A001A001A001A001A0C1
:1007300001A001A001A001A001A001A001A001A0B1
:1007400001A001A001A001A001A001A001A001A0A1
:1007500001A001A001A001A001A001A001A001A091
:1007600001A001A001A0970100209381A12717817A
:10077000012013012189176502001305A50F9705B4
:100780000020938525881386818563FAC50083221E
:10079000050023A0550011059105E3EAC5FE1705E4
:1007A00000201305A5A9971501209385A57C6377E3
:1007B000B500232005001105E36DB5FEFD427390E1
:1007C00002BCFD4273904280B78200009382028097
:1007D00073A00230970200009382428693E23200B7
:1007E00073905230EF104034971200009382E22849
:1007F0007390123473002030411122C600080100AA
:100800003244410173002030411122C60008B7175D
:1008100002001385077DEFD06132EFA03158AA871F
:10082000BE85B71702001385477EEFD0811FEFA06A
:100830009158AA87BE85B71702001385477FEFD06E
:10084000411EEFA0F158AA87BE85B7270200138585
:100850004780EFD0011DEF30502BAA873E85EF2057
:10086000F05AAA87BE85B727020013854781EFD0CB
:10087000411BEFA0B152AA87BE85B727020013859E
:100880000784EFD0011A01A0011106CE22CC00107E
:100890002326A4FE2324B4FE832584FEB72702006A
:1008A0001385478CEFD0E117B75700009385C744F5
:1008B000B72702001385078EEFD0A11601A0011102
:1008C00006CE22CC0010AA87A307F4FE8347F4FECD
:1008D00099C7854537150140EFB0017C31A08545AA
:1008E00037150140EFB0617D0100F24062440561BF
:1008F0008280011106CE22CC0010AA87A307F4FE45
:100900008347F4FE99C7894537150140EFB0C17898
:1009100031A0894537150140EFB0217A0100F2403E
:10092000624405618280011106CE22CC0010232290
:1009300004FE232404FE232604FE85454145EFB032
:10094000113C8D472312F4FEC1472326F4FE8D4748
:100950002324F4FE930744FEBE8537150140EFB013
:1009600081510545A93F054569370100F2406244C0
:1009700005618280797106D622D40018232E04FCEA
:10098000232004FE232204FE85451145EFB03137B4
:1009900093070010231EF4FCE1472322F4FE8D4749
:1009A0002320F4FE9307C4FDBE85B71701401385CD
:1009B0000780EFB0414C0145EFB0514C4145EFB0DD
:1009C00051433565EFB031472D45EFB0B13705459F
:1009D000EFB0D14A13052003EF20A07819A8B7275C
:1009E000020013850790EFD0611513052003EF2057
:1009F00040771305D003EFB0F136AA87EDD3B727C0
:100A0000020013858791EFD0611385450545EFB04E
:100A1000112F113F85457165EFB0112AB74702408C
:100A2000938707809843B7470240938707801367EF
:100A3000470098C3EFA07155EFB0C12CB707002055
:100A4000294723AEE722378702408567BA979C4340
:100A5000858B95CBB707002083A7C7231387F7FFA4
:100A6000B707002023AEE722B707002083A7C723DC
:100A700099E7B72702001385C792EFD0210C130521
:100A80002003EF20006EB707002013854736EFA044
:100A9000F151B70700209387473605671307078092
:100AA00098D3B7070020938747362167D8CBB7077D
:100AB0000020054723A2E736B70700209387473673
:100AC00023AE0700B707002093874736130700209F
:100AD00098D7B70700209387473623A60702B707A2
:100AE0000020938747363707008098DFB70700203C
:100AF0009387473623A20704B7070020938747361A
:100B00000547F8C7B70700209387473623A807048F
:100B1000B70700209387473623AA0704B7070020AA
:100B20009387473613070040D8D3B7070020938731
:100B3000473623A00708B7070020938747363707B3
:100B4000000223A2E708B70700209387473637073C
:100B5000200023A6E708B70700209387473613072E
:100B6000000823AAE708B707002093874736130732
:100B7000000423ACE708B70700209387473623A07B
:100B8000070AB7070020938747363707000223A2DA
:100B9000E70AB707002093874736416723A4E70A8F
:100BA000B7070020938747363707400023A6E70A98
:100BB000B707002093874736096723A8E70AB707D6
:100BC000002093874736116723ACE70A232604FEEB
:100BD000B78702409C4B2326F4FE8327C4FE8D9BDF
:100BE0002326F4FEB78702400327C4FE98CB216674
:100BF00081450545EFA0F16413052003EF20605601
:100C0000B707002009671307077123AEE722B7076C
:100C100000202390072481450545EFA0F155AA87C0
:100C20003E87B70700202390E724B707002083D72B
:100C30000724C207C18763DC0702B707002083A728
:100C4000C7231387F7FFB707002023AEE722B707B4
:100C5000002083A7C72381EBB7270200138547979E
:100C6000EFC0D16D01A01305401FEF20804FB707E3
:100C7000002009671307077123AEE722B70700209A
:100C80002390072485450545EFA0114FAA873E878D
:100C9000B70700202390E724B707002083D7072455
:100CA000918B9DEBB707002083A7C7231387F7FF1E
:100CB000B707002023AEE722B707002083A7C7238A
:100CC00081EBB72702001385879CEFC0316701A035
:100CD0001305401FEF20E048B707002009671307FE
:100CE000077123AEE722B70700202390072485452C
:100CF0000545EFA07148AA873E87B70700202390DB
:100D0000E724B707002083D7072493F707029DEB5A
:100D1000B707002083A7C7231387F7FFB707002073
:100D200023AEE722B707002083A7C72381EBB727AD
:100D30000200138547A1EFC0716001A01305401F99
:100D4000EF202042C1450545EFA01143AA873E8709
:100D5000B70700202390E724B707002083D7072494
:100D6000BE85B7270200138547A7EFC0914BB70791
:100D7000002083D70724918B85C3B7070020938772
:100D8000473605671307078098D3B72702001385F6
:100D9000C7A8EFC0B15A29A8B707002093874736E4
:100DA00023A00702B72702001385C7A9EFC0115976
:100DB000B70700209387473623AA0700B70700200C
:100DC00083D70724A18B99C7B72702001385C7AA29
:100DD000EFC0D1561545EF20C038B78702409C437D
:100DE0002326F4FE0327C4FEB78720FF9387F7105E
:100DF000F98F2326F4FEB707002093874736D843A0
:100E0000B7070020938747369C475D8FB7070020C0
:100E100093874736DC475D8FB707002093874736B7
:100E20009C4B5D8FB707002093874736DC4B5D8F67
:100E3000B7070020938747369C4F5D8FB707002088
:100E400093874736DC4F5D8FB7070020938747367F
:100E50009C535D8FB707002093874736DC535D8F27
:100E6000B7070020938747369C575D8FB707002050
:100E700093874736DC575D8FB70700209387473647
:100E80009C5B5D8FB707002093874736DC5BD98F6B
:100E90000327C4FED98F2326F4FEB7870240032719
:100EA000C4FE98C3B78702409443B7870240370710
:100EB0001000558F98C3B707002093874736985F77
:100EC000B707002093874736DC5F5D8FB7070020A8
:100ED00093874736BC435D8FB7070020938747361B
:100EE000FC435D8FB707002093874736BC475D8F73
:100EF000B707002093874736FC475D8FB707002070
:100F000093874736BC4BB366F700B707002093873B
:100F10004736F84BB7870240558FD8C3B787024092
:100F20003707002013074736384F98C7B787024066
:100F30003707002013074736784FD8C7B7870240D6
:100F40009C4F2326F4FE0327C4FEC167938717F442
:100F5000F98F2326F4FEB707002093874736BC534A
:100F600013970701B707002093874736FC535D8F1F
:100F7000B707002093874736BC575D8FB70700201F
:100F800093874736FC575D8FB70700209387473616
:100F9000BC5B5D8FB707002093874736FC5BD98F1A
:100FA0000327C4FED98F2326F4FEB7870240032708
:100FB000C4FE98CFB707002093874736B45FB707C2
:100FC000002093874736F85FB7870240558FD8CF08
:100FD000378702408567BA979C4F2326F4FE032784
:100FE000C4FEB747DEF8938737F2F98F2326F4FE65
:100FF000B70700209387473603A70708B7070020E5
:101000009387473683A747085D8FB70700209387EC
:10101000473683A787085D8FB70700209387473639
:1010200083A7C7085D8FB70700209387473683A73C
:1010300007095D8FB70700209387473683A74709C5
:101040005D8FB70700209387473683A787095D8F99
:10105000B70700209387473683A7C7095D8FB70777
:1010600000209387473683A7070AD98F0327C4FE3A
:10107000D98F2326F4FE378702408567BA97032766
:10108000C4FE98CFB70700209387473603A7470AC7
:10109000B70700209387473683A7870A5D8FB70776
:1010A00000209387473683A7C70A5D8FB7070020C4
:1010B0009387473683A7070B5D8FB7070020938779
:1010C000473683A7470B8A075D8FB70700209387B2
:1010D000473683A7870B5D8FB7860240B70780002E
:1010E0005D8F8567B69798C38545C16713851704DB
:1010F000EFA091519307D0042324F4FE832784FEAC
:10110000FD8B0547B316F70037E700E0832784FE21
:101110009583938707048A07BA9794C31146B7A7A4
:1011200000209385C747B79700201385C7C2EFA05B
:10113000B1251146B79700209385C7C6B7A70020F1
:101140001385C743EFA0D12FEFA0D1000100B2500B
:10115000225445618280411122C60008378702402F
:101160008567BA97DC4B93F7070491CB130500040E
:10117000EFA0B13BB7C70020138507C545293787C6
:1011800002408567BA97DC4B858B81C70545EFA088
:10119000D1394165EFA0713901003244410173003A
:1011A0002030397106DE22DC80002326A4FC2326B1
:1011B00004FE232E04FC232004FE232204FE232409
:1011C00004FEB727012083A707F69C4363DE0704CC
:1011D000232004FE378702408567BA97DC4B93F7DC
:1011E000070891CF378702408567BA971307000831
:1011F000D8CB378702408567BA9723A40700B72763
:1012000002001385C7ABEFC071138327C4FC83258D
:10121000C4FD032604FE832644FE032784FE8CC3FC
:10122000D0C394C7D8C7D5A8B727012083A707F68E
:101230009843A167F98FB1E7B727012083A707F685
:101240009C4393F7071095CFB727012083A707F694
:101250009C4393F7072095C7B727012083A707F67C
:101260009C4313D707019167FD17F98FF1172326C8
:10127000F4FEB727012083A707F69C472322F4FE3C
:1012800039A8232604FEB727012083A707F69C432D
:10129000BE85B7270200138587ADEFC08178B727D9
:1012A000012083A707F69443B727012083A707F6F9
:1012B00037070080558F98C38327C4FE2320F4FE90
:1012C000B727012083A707F62324F4FEB7270120C0
:1012D00083A707F6DC473E87B727012023A0E7F660
:1012E000832704FE89CF832704FE91CB0145EFF0CD
:1012F0004FE0B70700201307400623ACE7228327FF
:10130000C4FC8325C4FD032604FE832644FE032774
:1013100084FE8CC3D0C394C7D8C70325C4FCF25045
:10132000625421618280011106CE22CC0010AA876E
:101330002317F4FEB727012083A747F69C4363D405
:101340000700814771A08356E4FEB727012083A7D9
:1013500047F609677D17758FD8C3B727012083A784
:1013600047F69443B727012083A747F63707C030D5
:10137000558F98C3B727012083A747F69443B72713
:10138000012083A747F637070080558F98C337871A
:1013900002408567BA97DC4B918B89CF3787024033
:1013A0008567BA971147D8CB378702408567BA97C8
:1013B00023A20700B727012083A747F6DC473E8713
:1013C000B727012023A2E7F60145EFF08FD285472A
:1013D0003E85F240624405618280797122D6001810
:1013E000232EA4FCB7F7FF1F9387D77E2324F4FE98
:1013F000A30704FE35A0832784FE98238327C4FD1A
:1014000098A38327C4FD8507232EF4FC832784FE3D
:10141000FD172324F4FE8347F4FE8507A307F4FE9B
:101420000347F4FE9547E3F8E7FC010032544561B9
:101430008280797106D622D40018232EA4FC83273B
:10144000C4FD1947238AE702930784FE3E8571375E
:10145000034784FE8327C4FD2387E702034794FEE6
:101460008327C4FDA387E7020347A4FE8327C4FDA7
:101470002388E7020347B4FE8327C4FDA388E7025D
:101480000347C4FE8327C4FD2389E7020347D4FE34
:101490008327C4FDA389E7028327C4FD1307C05D2A
:1014A000DAB78327C4FD3947A38AE702EFF08FCC70
:1014B0000100B250225445618280797106D622D44F
:1014C0000018232EA4FC232CB4FCEFA05119AA87EA
:1014D0002324F4FE832784FD2326F4FE1DA88327FE
:1014E000C4FED8438327C4FEBE273E86BA850325A3
:1014F00084FEEFB0B1118327C4FEBE273E87832749
:1015000084FEBA972324F4FE8327C4FE9C4323263B
:10151000F4FE8327C4FEE1F7832784FD9E273E85E2
:101520001935B727012083D747E3850713970701AC
:101530004183B7270120239AE7E281473E85B250D5
:10154000225445618280397106DE22DC8000232628
:10155000A4FC930704FD3E85A931832784FD232441
:10156000F4FE832744FD2313F4FE835764FE130621
:101570002018BE850145EF50F0392320A4FE8327B3
:1015800004FEB5C3832704FE2326F4FE1DA883278B
:10159000C4FED8438327C4FEBE273E86832584FE2F
:1015A0003A85EFB0B1068327C4FEBE273E87832766
:1015B00084FEBA972324F4FE8327C4FE9C4323268B
:1015C000F4FE8327C4FEE1F7B7270120938747E3A2
:1015D000BE238507139707014183B727012093870F
:1015E00047E3BAA32DA8B7270120938747E3DE2757
:1015F0008507139707014183B7270120938747E3A6
:10160000DAA7B7270120938747E3FE2385071397BF
:1016100007014183B7270120938747E3FAA3832774
:1016200004FE3E85F250625421618280797106D6B3
:1016300022D40018232EA4FC0325C4FD2937232619
:10164000A4FE8327C4FE8DC38327C4FD9C4B832542
:10165000C4FD0325C4FE8297AA8799C70325C4FE4B
:10166000EF60C031232604FE0100B25022544561D0
:101670008280797106D622D40018232EA4FC8327F9
:10168000C4FD95E7B7270200938607B01306500EF6
:10169000B7270200938547B1B7270200138547B2E9
:1016A000EFC021380145EFB0614CEFB0C1311145B9
:1016B000EF40F0422326A4FE8327C4FE99E3FD57A2
:1016C00095A08327C4FD372702001307C7B498D716
:1016D0008327C4FD0327C4FED8CF8327C4FD130787
:1016E0005006238BE7028327C4FD1307E006A38B74
:1016F000E7028327C4FD375701001307A717D8CB8C
:101700008327C4FD371700001307A74B98CF832703
:10171000C4FD1387E7028327C4FE98C30325C4FDD5
:10172000093B81473E85B2502254456182800111B8
:1017300006CE22CC0010232204FE232404FE2326FE
:1017400004FE85453145EFA0915BE1772312F4FE5D
:10175000C1472326F4FE8D472324F4FE930744FE5D
:10176000BE85B717014013850780EFA0C170C14740
:101770002312F4FE930744FEBE85B717014013857C
:1017800007C0EFA0416F0100F24062440561828012
:10179000011106CE22CC0010854513050020EFA0D4
:1017A000B1510545EFA0F17581450145EF70411A32
:1017B000B79701001388C78FB71700009387276773
:1017C000014781460146814537C50020130505C5FF
:1017D000EF504022B7C70020138507C5EF50206C9B
:1017E000B7C70020138507C5EF50406DB7C700206D
:1017F000138507C5EF10A10DEF90E15BB72702003D
:10180000138547B5EF10D0772326A4FE8327C4FEA7
:1018100089CF0325C4FEEF209024AA87BE85B72771
:101820000200138547B6EFC0C11F0100F2406244B9
:1018300005618280797106D622D40018232EA4FC7B
:10184000EFF06F8E95472326F4FE231504FE8545A1
:101850000545EFA06112AA872315F4FE8357A4FE65
:10186000918B99CB0145EFF08F85B7C70020138589
:1018700007C5EF50407011A80545EFF04F84B7C77A
:101880000020138507C5EF50E074B707002083A739
:1018900087239DCB0145EFF0CF85B707002003A735
:1018A0008723A54763FDE700B707002083A78723A9
:1018B000138767FFB707002023ACE72209A8B70703
:1018C000002023AC072221A00545EFF08F820325DD
:1018D000C4FEEF101009A5BF397106DE22DC8000BE
:1018E0002326A4FCA30704FE230704FEA30604FE8C
:1018F0009307C05D2324F4FE930740062322F4FEE1
:10190000EF30D0342320A4FE0145EF205015232EC4
:10191000A4FC032704FE832784FE6372F702834737
:10192000E4FE85E3832704FEBE85B7270200138506
:10193000C7B7EFC0010F85472307F4FE19A023079F
:1019400004FE0327C4FD832744FE6372F702834726
:10195000D4FE85E38327C4FDBE85B7270200138527
:1019600047BAEFC0010C8547A306F4FE19A0A306F1
:1019700004FEEF30102F232CA4FC032784FD8327C3
:1019800084FE637BF700832784FDBE85B7270200B2
:10199000138507BDEFC0E108B7C70020938707C5CF
:1019A00083C75703858B93F7F70F85CFB7C7002001
:1019B000938707C5DC4395C78347F4FE8DE7B7C718
:1019C0000020138547C5EF403104AA87BE85B7279D
:1019D0000200138507C1EFC0C1048547A307F4FEC9
:1019E00019A0A30704FE0546A165B717014013859A
:1019F0000780EFA0A16E0146C145B71701401385CE
:101A000007C0EFA0A16D1305A00FEF108075014670
:101A1000A165B717014013850780EFA0216C05462B
:101A2000C145B7170140138507C0EFA0216B13050F
:101A3000A00FEF100073E9B5011106CE22CC001003
:101A40002326A4FE2324B4FE832784FE3E8683251A
:101A5000C4FEB7270200138507C2EFB0917C01A036
:101A6000411106C622C40008B7270200138547C4E7
:101A7000EFC0C10C01A0411106C622C400080945EF
:101A8000EFA04169EF907136F16713850720EF9061
:101A9000313A7139B707002083A7071EBE85B727E3
:101AA0000200138547C7EFB0D177B72702009385AF
:101AB00047C8B72702001385C7C8EFB09176B7278C
:101AC00002009385C7CAB7270200138547CBEFB042
:101AD00051757D39B7C700209387C7C41547814624
:101AE000056613060680B7250200938585CC372549
:101AF00000001305858DEF10802F81470D4781462B
:101B000013060010B7250200938505CD3725000088
:101B100013054583EF10A02DEF10E07881473E8537
:101B2000B240224441018280411106C622C400080D
:101B3000B71702409843B71702401367170098C3BE
:101B4000B7170240D443B71702403707FFF8758F25
:101B5000D8C3B71702409443B71702403707F7FEC0
:101B60007D17758F98C3B71702409443B71702408B
:101B70003707FCFF7D17758F98C3B7170240D44312
:101B8000B7170240370781FF7D17758FD8C3B71786
:101B9000024037079F0098C731200100B24022441D
:101BA00041018280411106C622C400083120010093
:101BB000B240224441018280011122CE001023262E
:101BC00004FE232404FEB71702409443B7170240D3
:101BD0004167558F98C3B71702409843B707020073
:101BE000F98F2324F4FE8327C4FE85072326F4FE01
:101BF000832784FE91E70327C4FE8567E31DF7FC76
:101C0000B71702409843B7070200F98F89C7854785
:101C10002324F4FE19A0232404FE032784FE854711
:101C20006313F70C37170240B71702405843D8C365
:101C300037170240B71702405843D8C3B7170240BE
:101C4000D843B717024013670740D8C3B7170240FD
:101C5000D443B71702403707C1FF7D17758FD8C32C
:101C6000B7F7FF1F9387C77098439167F98F99EB78
:101C7000B7170240D443B717024037073D00558FCE
:101C8000D8C309A8B7170240D443B7170240416729
:101C9000558FD8C3B71702409443B7170240370790
:101CA0000001558F98C30100B71702409843B7074A
:101CB0000002F98FF5DBB7170240D843B71702408F
:101CC000719BD8C3B7170240D843B71702401367B8
:101CD0002700D8C30100B7170240DC4313F7C70041
:101CE000A147E31AF7FE01007244056182800111E9
:101CF00022CE00102326A4FE8327C4FE138787006C
:101D00008327C4FED8C38327C4FE7D5798C7832783
:101D1000C4FE138787008327C4FED8C78327C4FE69
:101D2000138787008327C4FE98CB8327C4FE23A094
:101D300007000100724405618280011122CE00106B
:101D40002326A4FE8327C4FE23A8070001007244B3
:101D500005618280797122D60018232EA4FC232CE1
:101D6000B4FC832784FD9C432324F4FE032784FED4
:101D7000FD576318F7008327C4FD9C4B2326F4FE10
:101D800025A08327C4FDA1072326F4FE31A08327C5
:101D9000C4FEDC432326F4FE8327C4FEDC439C43BD
:101DA000032784FEE375F7FE8327C4FED843832709
:101DB00084FDD8C3832784FDDC43032784FD98C7B3
:101DC000832784FD0327C4FE98C78327C4FE032707
:101DD00084FDD8C3832784FD0327C4FD98CB8327C4
:101DE000C4FD9C43138717008327C4FD98C30100DB
:101DF000325445618280797122D60018232EA4FCCA
:101E00008327C4FD9C4B2326F4FE8327C4FDDC43BB
:101E10000327C4FD184798C78327C4FD9C470327A1
:101E2000C4FD5843D8C38327C4FEDC430327C4FD45
:101E30006318F7008327C4FD98478327C4FED8C3DF
:101E40008327C4FD23A807008327C4FE9C43138770
:101E5000F7FF8327C4FE98C38327C4FE9C433E85B7
:101E6000325445618280797106D622D40018232E1F
:101E7000A4FC232CB4FC85472326F4FE8327C4FD51
:101E80002324F4FE832784FE81EB93057013B72788
:101E90000200138507CE4D36832784FE638B070E21
:101EA000832784FEDC5F6386070E832784FEB843A6
:101EB000832784FEDC5F8146B337F70291C38546F2
:101EC000B687E1EBEF308027832784FE9843832792
:101ED00084FED45F832784FEBC43B387F6023E971B
:101EE000832784FE98C7832784FE23AC07028327B9
:101EF00084FE9843832784FED8C3832784FE9843B7
:101F0000832784FEDC5F9386F7FF832784FEBC4330
:101F1000B387F6023E97832784FED8C7832784FEC3
:101F20007D572382E704832784FE7D57A382E7043D
:101F3000832784FDA9E3832784FE9C4BA1CB8327C1
:101F400084FEC1073E85EF109064AA87A1C3B947FC
:101F50002322F4FE832744FEFD8B0547B316F700CA
:101F600037E700E0832744FE9583938707088A07B5
:101F7000BA9794C321A8832784FEC1073E85853B79
:101F8000832784FE938747023E859533EF30C01C3C
:101F900019A0232604FE8327C4FE81EB9305C016F7
:101FA000B7270200138507CE413C8327C4FE3E8538
:101FB000B250225445618280797106D622D400182D
:101FC000232EA4FC232CB4FCB287A30BF4FC232601
:101FD00004FE8327C4FDC9C38146032784FD8327EC
:101FE000C4FDB337F70291C38546B687B5E703272B
:101FF000C4FD832784FD3307F702930770FB63ED6D
:10200000E7040327C4FD832784FDB307F7022324D5
:10201000F4FE832784FE938787043E85EF30801784
:102020002326A4FE8327C4FEB9C38327C4FE23222C
:10203000F4FE832744FE938787042322F4FE83471C
:1020400074FD0327C4FEBE86032644FE832584FD5B
:102050000325C4FD252021A88327C4FE89EB930511
:10206000A022B7270200138507CEEFF0FF9C83273D
:10207000C4FE3E85B250225445618280797106D6F5
:1020800022D400182326A4FE2324B4FE2322C4FE57
:10209000B687232EE4FCA301F4FE832784FE99E790
:1020A0008327C4FD0327C4FD98C331A08327C4FD43
:1020B000032744FE98C38327C4FD0327C4FED8DF4B
:1020C0008327C4FD032784FEB8C385450325C4FDCB
:1020D000593B0100B250225445618280011106CE65
:1020E00022CC00102326A4FE8327C4FE9DC3832791
:1020F000C4FE23A407008327C4FE23A00700832770
:10210000C4FE23A607008146014681450325C4FE7F
:10211000912A0100F240624405618280797106D6FD
:1021200022D40018AA87A30FF4FC85472326F4FEC7
:10213000232404FE8347F4FD3E86832584FE032585
:10214000C4FE9D3D2322A4FE032544FE413F832778
:1021500044FE3E85B250225445618280797106D694
:1021600022D426D20018232EA4FC8327C4FD2324C6
:10217000F4FE832784FE89EB9305B02FB727020076
:10218000138507CEEFF05F8B832784FE8447EF2013
:10219000C017AA876398F402832784FEDC4713875D
:1021A000F7FF832784FED8C7832784FEDC4799E79F
:1021B000814601468145032584FE6D2085472326FF
:1021C000F4FE19A0232604FE8327C4FE3E85B250E8
:1021D0002254925445618280797106D622D426D247
:1021E0000018232EA4FC232CB4FC8327C4FD232435
:1021F000F4FE832784FE89EB93057033B727020032
:10220000138507CEEFF05F83832784FE8447EF209A
:10221000C00FAA87639EF400832784FEDC471387E0
:102220001700832784FED8C785472326F4FE1DA008
:10223000832584FD032584FE9D292326A4FE832770
:10224000C4FE89CB832784FEDC47138717008327CE
:1022500084FED8C78327C4FE3E85B25022549254D0
:1022600045618280397106DE22DC80002326A4FCD1
:102270002324B4FC2322C4FC2320D4FC232604FE04
:102280008327C4FC2324F4FE832784FE89EB930573
:10229000603BB7270200138507CEEFF0EFF98327E5
:1022A00084FC89E7832784FEBC4399E3854711A01A
:1022B000814789EB9305703BB7270200138507CE52
:1022C000EFF08FF7032704FC89476318F700832793
:1022D00084FED85F85476314F700854711A08147C6
:1022E00089EB9305803BB7270200138507CEEFF0FB
:1022F000AFF4EF206003AA8781E7832744FC99E3CA
:10230000854711A0814789EB9305B03BB7270200B1
:10231000138507CEEFF04FF2EF205062832784FE43
:10232000985F832784FEDC5F6367F700032704FC64
:1023300089476316F708032604FC832584FC0325DC
:1023400084FEF92B2322A4FE832784FEDC5395CF41
:10235000832784FE938747023E85EF105023AA8788
:10236000B9CBB9472320F4FE832704FEFD8B054734
:10237000B316F70037E700E0832704FE95839387C1
:1023800007088A07BA9794C33DA0832744FE85C7F0
:10239000B947232EF4FC8327C4FDFD8B0547B316F4
:1023A000F70037E700E08327C4FD9583938707088C
:1023B0008A07BA9794C3EF20305A8547C5A8832768
:1023C00044FC89E7EF2050598147CDA08327C4FE04
:1023D00089EB930704FD3E85EF10303E85472326A9
:1023E000F4FEEF207057EF00D073EF2030558327B5
:1023F00084FE83C74704139787016187FD576316DF
:10240000F700832784FE23820704832784FE83C783
:102410005704139787016187FD576316F7008327D9
:1024200084FEA3820704EF203053130744FC930774
:1024300004FDBA853E85EF10303BAA87B5E303253E
:1024400084FEEF00C076AA87B1C7832784FEC10748
:10245000032744FCBA853E85EF10F002032584FE75
:10246000912DEF00306EAA87E39807EAB947232C35
:10247000F4FC832784FDFD8B0547B316F70037E78F
:1024800000E0832784FD9583938707088A07BA971E
:1024900094C359B5032584FE312DEF00B06AADBD5C
:1024A000032584FE012DEF00F06981473E85F2503F
:1024B000625421618280397106DE22DC800023268D
:1024C000A4FC2324B4FC2322C4FC232604FE83277B
:1024D000C4FC2324F4FE832784FE89EB9305305E3D
:1024E000B7270200138507CEEFF00FD5832784FCB2
:1024F00089E7832784FEBC4399E3854711A0814780
:1025000089EB9305705EB7270200138507CEEFF0C5
:10251000AFD2EF107061AA8781E7832744FC99E36B
:10252000854711A0814789EB9305C05EB72702005C
:10253000138507CEEFF04FD0EF205040832784FE65
:102540009C5F2322F4FE832744FEA5C3832584FCDD
:10255000032584FEDD29832744FE1387F7FF8327A5
:1025600084FE98DF832784FE9C4B85CF832784FEDF
:10257000C1073E85EF10B001AA8785C7B947232060
:10258000F4FE832704FEFD8B0547B316F70037E7FB
:1025900000E0832704FE9583938707088A07BA978C
:1025A00094C3EF20703B8547F5A8832744FC89E757
:1025B000EF20903A8147FDA08327C4FE89EB930763
:1025C00044FD3E85EF10701F85472326F4FEEF2063
:1025D000B038EF001055EF207036832784FE83C794
:1025E0004704139787016187FD576316F700832718
:1025F00084FE23820704832784FE83C7570413972E
:1026000087016187FD576316F700832784FEA38245
:102610000704EF207034130744FC930744FDBA8588
:102620003E85EF10701CAA87B5E3032584FEA9231D
:10263000AA87B9C7832784FE93874702032744FCF0
:10264000BA853E85EF102064032584FEA521EF00A6
:10265000704FAA87E39207EEB947232EF4FC832735
:10266000C4FDFD8B0547B316F70037E700E083276D
:10267000C4FD9583938707088A07BA9794C36DBDF5
:10268000032584FE0529EF00F04B7DB5032584FE6C
:102690001521EF00304B032584FEF929AA87E38D2D
:1026A00007E881473E85F2506254216182805D7166
:1026B00086C6A2C48008232EA4FA232CB4FA2326AB
:1026C00004FE8327C4FB2322F4FE232404FE832775
:1026D00044FE89EB9305C067B7270200138507CE38
:1026E000EFF08FB5832744FEBC4389CB9305006888
:1026F000B7270200138507CEEFF00FB4EF10D042DA
:10270000AA8781E7832784FB99E3854711A0814746
:1027100089EB93055068B7270200138507CEEFF0C9
:10272000AFB1EF20B021832744FE9C5F2320F4FE4D
:10273000832704FEADC7832704FE1387F7FF832793
:1027400044FE98DF832744FE9C4399E7EF20200B4B
:102750002A87832744FE98C7832744FE9C4B85CF56
:10276000832744FEC1073E85EF106062AA8785C7B4
:10277000B947232CF4FC832784FDFD8B0547B31652
:10278000F70037E700E0832784FD958393870708E8
:102790008A07BA9794C3EF20301C854791A28327FC
:1027A00084FB89E7EF20501B81471DAA8327C4FEC5
:1027B00089EB9307C4FC3E85EF1030008547232644
:1027C000F4FEEF207019EF00D035EF20301783278B
:1027D00044FE83C74704139787016187FD5763163B
:1027E000F700832744FE23820704832744FE83C720
:1027F0005704139787016187FD576316F7008327F6
:1028000044FEA3820704EF203015130784FB9307CF
:10281000C4FCBA853E85EF10207DAA87D1E303254D
:1028200044FE992EAA87BDC7832744FE9C4389EFA7
:10283000EF20D010832744FE9C473E85EF10703276
:102840002324A4FEEF205011832744FE93874702E0
:10285000032784FBBA853E85EF10E042032544FE42
:10286000912CEF00302EAA87E39D07EAB947232A6F
:10287000F4FC832744FDFD8B0547B316F70037E7CB
:1028800000E0832744FD9583938707088A07BA975A
:1028900094C341BD032544FE312CEF00B02A51B54D
:1028A000032544FE012CEF00F029032544FEE92412
:1028B000AA87E38807E6832784FE95C3EF201008E4
:1028C000032544FE1D20232EA4FC832744FE9C47A1
:1028D0008325C4FD3E85EF10B057EF20F0078147F8
:1028E0003E85B640264461618280797122D6001807
:1028F000232EA4FC8327C4FDDC5399CB8327C4FD7E
:102900009C5B9C433D47B307F7402326F4FE19A088
:10291000232604FE8327C4FE3E853254456182800F
:10292000797106D622D40018232EA4FC232CB4FCE3
:10293000232AC4FC232604FE8327C4FD9C5F232492
:10294000F4FE8327C4FDBC4395E38327C4FD9C4369
:10295000F9EF8327C4FD9C473E85EF10703823268E
:10296000A4FE8327C4FD23A40700D1A0832744FD30
:10297000B1E78327C4FDD8438327C4FDBC433E860B
:10298000832584FD3A85EFA061488327C4FDD843A1
:102990008327C4FDBC433E978327C4FDD8C3832748
:1029A000C4FDD8438327C4FD9C476362F70883278F
:1029B000C4FD98438327C4FDD8C395A88327C4FDCD
:1029C000D8478327C4FDBC433E86832584FD3A85D2
:1029D000EFA0C1438327C4FDD8478327C4FDBC4370
:1029E000B307F0403E978327C4FDD8C78327C4FDB3
:1029F000D8478327C4FD9C43637EF7008327C4FD2B
:102A000098478327C4FDBC43B307F0403E97832714
:102A1000C4FDD8C7032744FD8947631AF7008327FD
:102A200084FE91C7832784FEFD172324F4FE8327A9
:102A300084FE138717008327C4FD98DF8327C4FE15
:102A40003E85B250225445618280011106CE22CCCF
:102A500000102326A4FE2324B4FE8327C4FEBC4317
:102A6000A9C78327C4FED8478327C4FEBC433E972B
:102A70008327C4FED8C78327C4FED8478327C4FE54
:102A80009C476368F7008327C4FE98438327C4FEEE
:102A9000D8C78327C4FED8478327C4FEBC433E86DD
:102AA000BA85032584FEEFA061360100F24062443E
:102AB00005618280797106D622D40018232EA4FCE9
:102AC000EF20C0678327C4FD83C75704A307F4FE24
:102AD0003DA08327C4FDDC5385CB8327C4FD9387AA
:102AE00047023E85EF10A02AAA8799C3EF10E06045
:102AF0008347F4FEFD1793F7F70FA307F4FE830750
:102B0000F4FEE348F0FC11A001008327C4FD7D57CB
:102B1000A382E704EF204064EF2040628327C4FDD6
:102B200083C747042307F4FE35A08327C4FD9C4BCD
:102B30009DC78327C4FDC1073E85EF104025AA87A6
:102B400099C3EF10805B8347E4FEFD1793F7F70FFF
:102B50002307F4FE8307E4FEE349F0FC11A0010023
:102B60008327C4FD7D572382E704EF20E05E010048
:102B7000B250225445618280797106D622D4001861
:102B8000232EA4FCEF20805B8327C4FD9C5F89E794
:102B900085472326F4FE19A0232604FEEF20C05B00
:102BA0008327C4FE3E85B2502254456182807971EC
:102BB00006D622D40018232EA4FCEF202058832709
:102BC000C4FD985F8327C4FDDC5F6316F70085476B
:102BD0002326F4FE19A0232604FEEF20E0578327C6
:102BE000C4FE3E85B250225445618280797106D67A
:102BF00022D40018232EA4FC232CB4FC232404FE8E
:102C00008327C4FD91EB85679385D7BBB727020067
:102C1000138507CEEFE05FE2832784FDBDCF232637
:102C200004FEBDA037C700208327C4FE130707C9D1
:102C30008E07BA97DC430327C4FD631EF700832782
:102C4000C4FE13973700B7C70020938707C9BA9708
:102C50002324F4FE99A0832784FE95E7B7C70020BC
:102C60000327C4FE0E07938707C9BA979C4381EFD9
:102C70008327C4FE13973700B7C70020938707C97F
:102C8000BA972324F4FE8327C4FE85072326F4FE87
:102C90000327C4FE9D47E3F7E7F8832784FE99CB1B
:102CA000832784FE032784FD98C3832784FE03279C
:102CB000C4FDD8C30100B2502254456182807971AD
:102CC00006D622D40018232EA4FC232CB4FC232ADD
:102CD000C4FC8327C4FD2326F4FEEF20204683276F
:102CE000C4FE83C74704139787016187FD576316A6
:102CF000F7008327C4FE238207048327C4FE83C70B
:102D00005704139787016187FD576316F7008327E0
:102D1000C4FEA3820704EF2020448327C4FE9C5FE7
:102D200081EF8327C4FE93874702032644FD832552
:102D300084FD3E85EF00307A0325C4FEA53B0100EB
:102D4000B250225445618280397106DE22DC800057
:102D5000232EA4FC232CB4FC2328D4FC2326E4FC3F
:102D60002324F4FCB287231BF4FC835764FD8A07F9
:102D70003E85EF2020422324A4FE832784FE85CFB6
:102D800013054005EF2000412326A4FE8327C4FE3F
:102D900091CF1306400581450325C4FEEFD0AFF463
:102DA0008327C4FE032784FE98DB01A8032584FE45
:102DB000EF20605C19A0232604FE8327C4FE8DC388
:102DC000035664FD81480328C4FE832784FC03273F
:102DD000C4FC832604FD832584FD0325C4FDA528AA
:102DE0008327C4FE3E85F25062542161828039718E
:102DF00006DE22DC8000232EA4FC232CB4FC232836
:102E0000D4FC2326E4FC2324F4FCB287231BF4FC2B
:102E1000035664FD832784FC0327C4FC832604FD3A
:102E2000832584FD0325C4FD05372324A4FE8327C1
:102E300084FE81CB032584FE712A85472326F4FE78
:102E400021A0FD572326F4FE8327C4FE3E85F250C1
:102E5000625421618280397106DE22DC8000232EDB
:102E6000A4FC232CB4FC232AC4FC2328D4FC232652
:102E7000E4FC2324F4FC232204FD232014FD8327F7
:102E800044FC985B832744FD8A073E869305500ADD
:102E90003A85EFD04FE5832744FC985B832644FDB9
:102EA000B7070040FD17B6978A07BA972324F4FEA8
:102EB000832784FEC19B2324F4FE832784FEBD8BDD
:102EC00089CB93056072B72702001385C7CFEFE067
:102ED000BFB6832784FDB1CB232604FE25A8032794
:102EE00084FD8327C4FEBA9703870700832644FC2A
:102EF0008327C4FEB697238AE702032784FD83272E
:102F0000C4FEBA978387070081CF8327C4FE850755
:102F10002326F4FE0327C4FEBD47E3F2E7FC11A01D
:102F20000100832744FCA38107040327C4FCB9479D
:102F300063FAE7009305C075B72702001385C7CF72
:102F4000EFE09FAF0327C4FCB94763F5E700B9473B
:102F50002326F4FC832744FC0327C4FCD8D783270B
:102F600044FC0327C4FCF8C3832744FC91073E8537
:102F7000EFE0BFDC832744FCE1073E85EFE0FFDBA9
:102F8000832744FC032744FC98CB3D478327C4FC9C
:102F90001D8F832744FC98CF832744FC032744FCE0
:102FA000D8D3032604FD8325C4FD032584FEEFD07A
:102FB0002FC52A87832744FC98C3832784FC91C7A5
:102FC000832784FC032744FC98C30100F250625419
:102FD00021618280797106D622D40018232EA4FCA8
:102FE000EF20C015B707002083A7472513871700D8
:102FF000B707002023AAE724B707002083A74724A8
:103000008DE3B70700200327C4FD23A2E724B707F9
:10301000002003A747258547631AF702EF106010C9
:1030200035A0B707002083A707268DE3B707002048
:1030300083A74724D8578327C4FDDC5763E8E700FC
:10304000B70700200327C4FD23A2E724B707002009
:1030500083A7072713871700B707002023A8E726B1
:103060008327C4FDD857B707002083A7C72563F976
:10307000E7008327C4FDD857B707002023AEE72415
:103080008327C4FDD857938601A4BA878A07BA97C5
:103090008A07B697DC432326F4FE8327C4FD032763
:1030A000C4FE98C78327C4FE98478327C4FDD8C7AA
:1030B0008327C4FE9C470327C4FD1107D8C3832779
:1030C000C4FD138747008327C4FE98C78327C4FD28
:1030D000D857BA878A07BA978A07138701A43E97F9
:1030E0008327C4FDD8CB8327C4FDD857BA878A0766
:1030F000BA978A07938601A4B6979C4393861700D4
:10310000BA878A07BA978A07138701A4BA9794C324
:10311000EF208004B707002083A7072695CFB707C5
:10312000002083A74724D8578327C4FDDC57637545
:10313000F702B9472324F4FE832784FEFD8B05475D
:10314000B316F70037E700E0832784FE9583938763
:1031500007088A07BA9794C30100B2502254456108
:103160008280797106D622D40018232EA4FC23264F
:1031700004FE8327C4FD95CB6D22B707002003A76B
:10318000C7278547630BF700856793853799B7276E
:1031900002001385C7CFEFE03F8A81450325C4FDB8
:1031A000EF10206945222326A4FE8327C4FE85E76D
:1031B000B9472324F4FE832784FEFD8B0547B3160D
:1031C000F70037E700E0832784FE9583938707089D
:1031D0008A07BA9794C30100B25022544561828095
:1031E000797106D622D4001885472326F4FE2320C1
:1031F00004FE232204FE35A8B7270200138787D1D7
:10320000832744FEBA9703870700832744FE93066B
:1032100004FFB6972380E7FE832744FE130704FFCD
:10322000BA97838707FE81CF832744FE8507232231
:10323000F4FE032744FEBD47E3D0E7FC11A00100E4
:10324000232404FEA1A0B747000093872711232061
:10325000F4FE832784FE13972700B7070020938787
:103260008727BA97930504FD01478146130600108E
:10327000032504FEEFF0BFB72326A4FE8327C4FE78
:1032800099CB832784FE85072324F4FE832784FEBD
:10329000E35BF0FA11A001008327C4FE3E85B25023
:1032A000225445618280011106CE22CC00100D3FD0
:1032B0002326A4FE0327C4FE85476316F700EF10FC
:1032C000606B2326A4FE0327C4FE85476314F70220
:1032D0000100B70700207D5723AAE726B707002083
:1032E000054723A0E726B707002023AC0724EF10EB
:1032F000F05439A80327C4FEFD57631BF700856708
:10330000938517EAB72702001385C7CFEFE0CFF206
:10331000B707002083A7471E0100F2406244056101
:103320008280411122C60008B707002083A7C72763
:1033300013871700B707002023AEE72601003244A9
:1033400041018280797106D622D40018232604FE1A
:10335000232404FEEF10905E232004FEB707002014
:1033600083A7C72791EB85679385B7F6B727020038
:103370001385C7CFEFE04FECB707002083A7C7271F
:103380001387F7FFB707002023AEE726B707002013
:1033900083A7C72763940724B707002083A747257F
:1033A000638E072269AA938741B9DC47DC4723264D
:1033B000F4FE8327C4FE9C57232EF4FC8327C4FE0F
:1033C000DC4F0327C4FE185398C78327C4FE9C53C1
:1033D0000327C4FE584FD8C38327C4FDD84383278F
:1033E000C4FEE1076318F7008327C4FE98538327C0
:1033F000C4FDD8C38327C4FE23A407028327C4FDCA
:103400009C431387F7FF8327C4FD98C38327C4FE1B
:10341000DC4B232CF4FC8327C4FE9C470327C4FE0B
:10342000584798C78327C4FEDC470327C4FE1847C4
:10343000D8C3832784FDD8438327C4FE910763182C
:10344000F7008327C4FED847832784FDD8C383278A
:10345000C4FE23AA0700832784FD9C431387F7FF3C
:10346000832784FD98C38327C4FED857B70700205D
:1034700083A7C72563F9E7008327C4FED857B7079A
:10348000002023AEE7248327C4FED857938601A4E7
:10349000BA878A07BA978A07B697DC43232AF4FCCF
:1034A0008327C4FE032744FD98C7832744FD98471C
:1034B0008327C4FED8C7832744FD9C470327C4FE47
:1034C0001107D8C38327C4FE13874700832744FD11
:1034D00098C78327C4FED857BA878A07BA978A073E
:1034E000138701A43E978327C4FED8CB8327C4FE4D
:1034F000D857BA878A07BA978A07938601A4B697DE
:103500009C4393861700BA878A07BA978A0713875E
:1035100001A4BA9794C38327C4FED857B7070020E5
:1035200083A74724DC5763FCE700B7070020032785
:1035300004FE0A0793878726BA97054798C383A78F
:1035400041B9E39207E68327C4FE99C3EF005058C0
:10355000B707002083A747262322F4FE832744FED3
:1035600095CBF52CAA8799CBB7070020032704FE3B
:103570000A0793878726BA97054798C3832744FE8F
:10358000FD172322F4FE832744FEE1FFB707002046
:1035900023A20726B7070020032704FE0A07938704
:1035A0008726BA979C439DCB85472324F4FEB70713
:1035B000002083A74724B9472328F4FC832704FD70
:1035C000FD8B0547B316F70037E700E0832704FDBE
:1035D0009583938707088A07BA9794C3EF10D0376B
:1035E000832784FE3E85B2502254456182800111BA
:1035F00022CE0010B707002083A787252326F4FEDC
:103600008327C4FE3E85724405618280797106D6A7
:1036100022D40018232EA4FC8327C4FD91E7B7070A
:10362000002083A7472419A08327C4FD2326F4FE86
:103630008327C4FE91EB856793855703B727020064
:103640001385C7CFEFE04FBF8327C4FE938747039F
:103650003E85B250225445618280397122DE80005D
:103660002326A4FC2324B4FC232604FE8327C4FCC5
:103670009C43638107108327C4FC2320F4FE832727
:1036800004FEDC43D843832704FED8C3832704FE0B
:10369000D843832704FEA1076318F700832704FE9D
:1036A000D847832704FED8C3832704FEDC43DC47C6
:1036B000232EF4FC8327C4FC232CF4FC832784FDF5
:1036C000DC43D843832784FDD8C3832784FDD843B4
:1036D000832784FDA1076318F700832784FDD8475B
:1036E000832784FDD8C3832784FDDC43DC47232A5A
:1036F000F4FC232204FE232404FE99A8032744FD9E
:10370000832784FEBA9783C74703A309F4FC0327E2
:1037100084FC832784FEBA9783870700030734FD60
:103720006306F70085472322F4FE19A8830734FDBA
:1037300081EB832744FD2326F4FE85472322F4FEF4
:10374000832744FE81EF832784FE85072324F4FE2C
:10375000032784FEBD47E3F3E7FA11A001008327A6
:10376000C4FE81EB032744FD8327C4FDE314F7F473
:1037700011A001008327C4FE3E857254216182801E
:10378000797106D622D40018232EA4FCBD47232627
:10379000F4FE0325C4FDEFA021552A87BD4763FB36
:1037A000E70085679385970DB72702001385C7CF7C
:1037B000EFE08FA8EFF0FFB68327C4FEFD172326A6
:1037C000F4FE0327C4FEBA878A07BA978A071387CD
:1037D00001A4BA978325C4FD3E8541352324A4FE68
:1037E000832784FE89E78327C4FEF9F711A001002F
:1037F000832784FE99EBB707002083A787248325BE
:10380000C4FD3E85993D2324A4FE832784FE99EBC5
:10381000B707002083A7C7248325C4FD3E85353D17
:103820002324A4FE832784FE81EB8325C4FD138516
:10383000C1BB25352324A4FE832784FE81EB832589
:10384000C4FD138581BA113D2324A4FEEFF09FAF80
:10385000832784FE3E85B25022544561828079716F
:1038600006D622D40018232604FEB707002083A71B
:10387000C727639F0728B707002083A787258507E9
:103880002324F4FEB7070020032784FE23ACE7249B
:10389000832784FEA5E3B707002083A787249C43E2
:1038A00091CB856793859728B72702001385C7CFEB
:1038B000EFE08F98B707002083A787242322F4FE28
:1038C000B707002003A7C724B707002023A4E724D5
:1038D000B7070020032744FE23A6E724B7070020EC
:1038E00083A7C72613871700B707002023A6E7265C
:1038F000EF00101EB707002083A74727032784FE89
:10390000636CF71CB707002083A787249C4399E7C3
:10391000B70700207D5723AAE7267DAAB707002016
:1039200083A78724DC47DC472320F4FE832704FE9B
:10393000DC43232EF4FC032784FE8327C4FD637934
:10394000F700B70700200327C4FD23AAE72669A2D2
:10395000832704FEDC4B232CF4FC832704FE9C47C6
:10396000032704FE584798C7832704FEDC47032734
:1039700004FE1847D8C3832784FDD843832704FE59
:1039800091076318F700832704FED847832784FD37
:10399000D8C3832704FE23AA0700832784FD9C4302
:1039A0001387F7FF832784FD98C3832704FE9C5762
:1039B000B1CF832704FE9C57232AF4FC832704FEFF
:1039C000DC4F032704FE185398C7832704FE9C533B
:1039D000032704FE584FD8C3832744FDD8438327C9
:1039E00004FEE1076318F700832704FE985383273A
:1039F00044FDD8C3832704FE23A40702832744FD84
:103A00009C431387F7FF832744FD98C3832704FE55
:103A1000D857B707002083A7C72563F9E700832796
:103A200004FED857B707002023AEE724832704FEFF
:103A3000D857938601A4BA878A07BA978A07B69798
:103A4000DC432328F4FC832704FE032704FD98C7E6
:103A5000832704FD9847832704FED8C7832704FDE6
:103A60009C47032704FE1107D8C3832704FE13874E
:103A70004700832704FD98C7832704FED857BA87D9
:103A80008A07BA978A07138701A43E97832704FE03
:103A9000D8CB832704FED857BA878A07BA978A07F4
:103AA000938601A4B6979C4393861700BA878A072A
:103AB000BA978A07138701A4BA9794C3832704FE91
:103AC000D857B707002083A74724DC57E3FCE7E279
:103AD00085472326F4FE3DB5B707002083A747247A
:103AE000D857BA878A07BA978A07138701A4BA9763
:103AF0009843854763F5E70085472326F4FEB7071B
:103B0000002083A7872699CF85472326F4FE19A88E
:103B1000B707002083A7472613871700B7070020A1
:103B200023A2E7268327C4FE3E85B2502254456176
:103B30008280797106D622D40018B707002083A7A7
:103B4000C72799C7B7070020054723A4E7263DA24A
:103B5000B707002023A40726B707002083A7472420
:103B60009C5B2324F4FEB7A7A5A59387575A23226D
:103B7000F4FE832784FE9C43032744FE631AF70266
:103B8000832784FE91079C43032744FE6312F702B8
:103B9000832784FEA1079C43032744FE631AF70092
:103BA000832784FEB1079C43032744FE6303F70287
:103BB000B707002083A74724938747032320F4FEF9
:103BC000B707002083A74724832504FE3E85EFC066
:103BD000BFCBB707002083A7C7252326F4FE15A077
:103BE0008327C4FE91EB856793851742B7270200B0
:103BF0001385C7CFEFD05FE48327C4FEFD172326CC
:103C0000F4FE0327C4FEBA878A07BA978A07138788
:103C100001A4BA979C43E9D70327C4FEBA878A0751
:103C2000BA978A07138701A4BA97232EF4FC832737
:103C3000C4FDDC43D8438327C4FDD8C38327C4FD18
:103C4000D8438327C4FDA1076318F7008327C4FD69
:103C5000D8478327C4FDD8C38327C4FDDC43D84796
:103C6000B707002023A2E724B70700200327C4FEDC
:103C700023AEE724B707002083A747240100B250F2
:103C8000225445618280011106CE22CC00102326E9
:103C9000A4FE2324B4FE8327C4FE91EB856793859D
:103CA000774AB72702001385C7CFEFD0FFD8B707F1
:103CB000002083A74724E107BE850325C4FEEFE06B
:103CC0006F898545032584FEEF00B0360100F24080
:103CD000624405618280797106D622D40018232EB1
:103CE000A4FC232CB4FC232AC4FC8327C4FD91EB41
:103CF00085679385574EB72702001385C7CFEFD04E
:103D0000BFD38327C4FDDC432326F4FEB70700207E
:103D100083A747240327C4FED8CFB707002083A773
:103D200047240327C4FE184798D3B707002003A7EA
:103D300047248327C4FE9C476107D8C3B7070020E8
:103D400083A74724138787018327C4FE98C7B70733
:103D5000002083A747240327C4FD98D78327C4FDE9
:103D60009C43138717008327C4FD98C3832744FD12
:103D700081C7FD57232CF4FC832544FD032584FDD6
:103D8000EF00302B0100B25022544561828039711E
:103D900006DE22DC80002326A4FC8327C4FCDC474B
:103DA000DC472324F4FE832784FE91EB856793850B
:103DB000C751B72702001385C7CFEFD0FFC78327AE
:103DC00084FE9C572322F4FE832784FEDC4F0327C6
:103DD00084FE185398C7832784FE9C53032784FED0
:103DE000584FD8C3832744FED843832784FEE10776
:103DF0006318F700832784FE9853832744FED8C3B3
:103E0000832784FE23A40702832744FE9C43138751
:103E1000F7FF832744FE98C3B707002083A7C7276F
:103E200063980710832784FEDC4B2320F4FE83274E
:103E300084FE9C47032784FE584798C7832784FE47
:103E4000DC47032784FE1847D8C3832704FED843E2
:103E5000832784FE91076318F700832784FED847E1
:103E6000832704FED8C3832784FE23AA0700832761
:103E700004FE9C431387F7FF832704FE98C3832720
:103E800084FED857B707002083A7C72563F9E7004A
:103E9000832784FED857B707002023AEE724832763
:103EA00084FED857938601A4BA878A07BA978A07EF
:103EB000B697DC43232EF4FC832784FE0327C4FD3E
:103EC00098C78327C4FD9847832784FED8C78327D4
:103ED000C4FD9C47032784FE1107D8C3832784FEB3
:103EE000138747008327C4FD98C7832784FED857CC
:103EF000BA878A07BA978A07138701A43E97832750
:103F000084FED8CB832784FED857BA878A07BA970E
:103F10008A07938601A4B6979C4393861700BA87B5
:103F20008A07BA978A07138701A4BA9794C391A8FE
:103F3000938741B9DC43232CF4FC832784FE0327B9
:103F400084FDD8CF832784FD9847832784FE98D3A8
:103F5000832784FD9C47032784FE6107D8C38327FA
:103F600084FE13878701832784FD98C7832784FEF7
:103F7000138741B998D783A741B91387170023AA9C
:103F8000E1B8832784FED857B707002083A74724CA
:103F9000DC5763FBE70085472326F4FEB7070020C4
:103FA000054723A4E72619A0232604FE8327C4FE81
:103FB0003E85F250625421618280011122CE0010B0
:103FC0002326A4FEB707002003A7C7268327C4FE25
:103FD00098C3B707002003A787258327C4FED8C34B
:103FE0000100724405618280797106D622D40018DE
:103FF000232EA4FC232CB4FC8327C4FD91EB8567FE
:104000009385C75CB72702001385C7CFEFD0DFA227
:10401000832784FD91EB85679385D75CB7270200E2
:104020001385C7CFEFD05FA1EF104011B707002075
:1040300083A787252324F4FE8327C4FDDC430327BD
:1040400084FEB307F7402322F4FEB707002083A7BE
:10405000472483C7170599CBB707002083A74724B8
:10406000A388070485472326F4FEBDA8832784FD83
:104070009843FD576315F700232604FEB5A0832758
:10408000C4FD9843B707002083A7C7266301F70242
:104090008327C4FDDC43032784FE636AF70085475A
:1040A0002326F4FE832784FD23A0070035A8832759
:1040B00084FD9C43032744FE6371F702832784FD3C
:1040C0009843832744FE1D8F832784FD98C30325CF
:1040D000C4FDE535232604FE01A8832784FD23A023
:1040E000070085472326F4FEEF1000078327C4FE50
:1040F0003E85B250225445618280411122C600089B
:10410000B7070020054723A4E726010032444101F8
:104110008280011106CE22CC00102326A4FE61204D
:10412000FDBF011106CE22CC0010232604FE15A0EF
:104130000327C4FEBA878A07BA978A07138701A4A0
:10414000BA973E85EFD0BFBA8327C4FE85072326E2
:10415000F4FE0327C4FEB947E3FCE7FC1385C1B6B0
:10416000EFD0FFB8138501B8EFD07FB8138541B900
:10417000EFD0FFB7138581BAEFD07FB71385C1BBEE
:10418000EFD0FFB6B70700201387C1B623A4E724FA
:10419000B7070020138701B823A6E7240100F240E7
:1041A000624405618280011106CE22CC001081A8F4
:1041B000EF00D078938781BADC47DC472326F4FEF2
:1041C0008327C4FE91073E85EFD0FFC2B7070020CA
:1041D00083A747251387F7FFB707002023AAE72403
:1041E000B707002083A707251387F7FFB70700202D
:1041F00023A8E724EF0050760325C4FE6D20B707FF
:10420000002083A70725CDF70100F2406244056135
:104210008280797122D60018232EA4FC232604FE66
:1042200019A88327C4FD8507232EF4FC8327C4FE29
:1042300085072326F4FE8327C4FD98239307500A9D
:10424000E301F7FE8327C4FE89832326F4FE832738
:10425000C4FEC207C1833E853254456182807971B4
:1042600006D622D40018232EA4FC8327C4FD91E790
:10427000B707002083A7472419A08327C4FD23265E
:10428000F4FE8327C4FE9C5B2324F4FE032584FEF6
:104290004937AA872322F4FE832744FE3E85B25085
:1042A000225445618280011106CE22CC00102326C3
:1042B000A4FE8327C4FE9C5B3E85EF10C00B032544
:1042C000C4FEEF10400B0100F240624405618280A1
:1042D000411122C60008B707002083A787249C430A
:1042E00099E7B70700207D5723AAE72619A8B70743
:1042F000002083A78724DC479843B707002023AA20
:10430000E7260100324441018280011122CE0010D3
:10431000B707002083A747242326F4FE8327C4FE83
:104320003E85724405618280011122CE0010B707DC
:10433000002083A7072689E785472326F4FE21A8C6
:10434000B707002083A7C72789E789472326F4FEFC
:1043500019A0232604FE8327C4FE3E85724405610E
:104360008280797106D622D40018232EA4FC8327DC
:10437000C4FD2324F4FE232604FE8327C4FD638AA0
:104380000714832784FED857B707002083A7472444
:10439000DC576373F712832784FE9C4F63CC0700BE
:1043A000B707002083A74724DC573D471D8F83278D
:1043B00084FE98CF832784FED44B832784FED8576E
:1043C000BA878A07BA978A07138701A4BA976399AD
:1043D000F60C832784FE91073E85EFD0DFA1B70757
:1043E000002083A74724D857832784FED8D7832764
:1043F00084FED857B707002083A7C72563F9E700D5
:10440000832784FED857B707002023AEE7248327ED
:1044100084FED857938601A4BA878A07BA978A0779
:10442000B697DC432322F4FE832784FE032744FE51
:1044300098C7832744FE9847832784FED8C78327DD
:1044400044FE9C47032784FE1107D8C3832784FEBC
:1044500013874700832744FE98C7832784FED857D5
:10446000BA878A07BA978A07138701A43E978327DA
:1044700084FED8CB832784FED857BA878A07BA9799
:104480008A07938601A4B6979C4393861700BA8740
:104490008A07BA978A07138701A4BA9794C309A811
:1044A000B707002083A74724D857832784FED8D78F
:1044B00085472326F4FE31A8832784FEF843B707F7
:1044C000002083A74724DC576375F7008547232620
:1044D000F4FE8327C4FE3E85B2502254456182809B
:1044E000797106D622D40018232EA4FC8327C4FD9C
:1044F0002324F4FE232604FE8327C4FD63830714CC
:10450000B707002083A74724032784FE630BF70027
:1045100089679385A7A4B72702001385C7CFEFD07B
:10452000AFD1832784FEBC4791EB89679385B7A4FD
:10453000B72702001385C7CFEFD00FD0832784FEA3
:10454000BC471387F7FF832784FEB8C7832784FE01
:10455000D857832784FEFC436305F70E832784FE28
:10456000BC47E5E3832784FE91073E85EFD0BF88F3
:10457000832784FEF843832784FED8D7832784FECD
:10458000DC573D471D8F832784FE98CF832784FE09
:10459000D857B707002083A7C72563F9E70083270B
:1045A00084FED857B707002023AEE724832784FE74
:1045B000D857938601A4BA878A07BA978A07B6970D
:1045C000DC432322F4FE832784FE032744FE98C79E
:1045D000832744FE9847832784FED8C7832744FE59
:1045E0009C47032784FE1107D8C3832784FE1387C3
:1045F0004700832744FE98C7832784FED857BA878D
:104600008A07BA978A07138701A43E97832784FEF7
:10461000D8CB832784FED857BA878A07BA978A07E8
:10462000938601A4B6979C4393861700BA878A079E
:10463000BA978A07138701A4BA9794C3854723269C
:10464000F4FE8327C4FE3E85B25022544561828029
:10465000397106DE22DC80002326A4FC2324B4FC6E
:104660008327C4FC2324F4FE85472322F4FE8327FA
:10467000C4FC63810718832784FEBC4791EB8967DC
:10468000938587AAB72702001385C7CFEFD0CFBA8B
:10469000832784FEFC43032784FC63F7E70083271A
:1046A00084FC2326F4FE31A0832784FEFC432326CA
:1046B000F4FE832784FEDC570327C4FE630CF71245
:1046C000832784FEBC47032744FE6315F712B70710
:1046D000002083A74724032784FE631BF700896714
:1046E000938537ACB72702001385C7CFEFD0CFB47F
:1046F000832784FEDC572320F4FE832784FE0327D0
:10470000C4FED8D7832784FE9C4F63C907003D476A
:104710008327C4FE1D8F832784FE98CF832784FEC2
:10472000D44B032704FEBA878A07BA978A071387F0
:1047300001A4BA976390F60C832784FE91073E8507
:10474000EFD06FEB832784FED857B707002083A7ED
:10475000C72563F9E700832784FED857B7070020F1
:1047600023AEE724832784FED857938601A4BA8713
:104770008A07BA978A07B697DC43232EF4FC83276F
:1047800084FE0327C4FD98C78327C4FD9847832769
:1047900084FED8C78327C4FD9C47032784FE1107E6
:1047A000D8C3832784FE138747008327C4FD98C797
:1047B000832784FED857BA878A07BA978A07138750
:1047C00001A43E97832784FED8CB832784FED85745
:1047D000BA878A07BA978A07938601A4B6979C433B
:1047E00093861700BA878A07BA978A07138701A4A6
:1047F000BA9794C30100F250625421618280011182
:1048000022CE0010B707002083A747242326F4FEFA
:104810008327C4FE89CB8327C4FEBC4713871700B8
:104820008327C4FEB8C78327C4FE3E857244056152
:104830008280397106DE22DC80002326A4FC23243A
:10484000B4FCB707002083A787252326F4FEB7070B
:10485000002083A787242324F4FEB707002083A722
:10486000C7242322F4FEB707002083A74724A38888
:104870000704B707002083A7472491073E85EFD0A0
:104880008FD70327C4FCFD57631AF706832784FCE0
:10489000B5C79387C1BBDC432320F4FEB7070020D4
:1048A00083A74724032704FE98C7B707002083A7E0
:1048B0004724032704FE1847D8C7B707002003A7DB
:1048C0004724832704FE9C471107D8C3B70700205D
:1048D00083A7472413874700832704FE98C7B70799
:1048E000002083A747241387C1BBD8CB83A7C1BBB4
:1048F0001387170023AEE1BA010085A80327C4FE81
:104900008327C4FCBA97232EF4FCB707002083A7A3
:1049100047240327C4FDD8C30327C4FD8327C4FE4F
:10492000637DF700B707002083A747249107BE8562
:10493000032544FEEFD00FC20DA8B707002083A7C0
:1049400047249107BE85032584FEEFD0AFC0B7078B
:10495000002083A747270327C4FD6378F700B70724
:1049600000200327C4FD23AAE7260100F250625469
:1049700021618280011106CE22CC0010232604FE84
:104980007D2BB707002083A787288DC7B707002096
:104990009387C7283947814613060010B7250200C0
:1049A000938505D237550000130585AAEFE02FC483
:1049B0002326A4FE8327C4FE89EB93056014B72742
:1049C0000200138587D2EFD02F878327C4FE3E8550
:1049D000F240624405618280011106CE22CC0010B3
:1049E0002326A4FE2324B4FE2322C4FE39A8832751
:1049F000C4FE9C4F032784FEBA972324F4FE83272A
:104A0000C4FE9C530325C4FE82978327C4FE984F9F
:104A1000832784FEBA97832684FE032644FEBE8540
:104A20000325C4FE3124AA87F9F30100F240624451
:104A300005618280797106D622D40018232EA4FC49
:104A4000232CB4FCB707002083A70728DC47DC47EA
:104A50002326F4FE8327C4FE91073E85EFD0AFB92D
:104A60008327C4FE83C74702918B89CB032684FD2D
:104A70008325C4FD0325C4FE853721A88327C4FEF2
:104A800083C74702F99B13F7F70F8327C4FE2382DE
:104A9000E7028327C4FE9C530325C4FE82970100CE
:104AA000B250225445618280797106D622D4001812
:104AB000232EA4FC930784FE3E85E1282326A4FE32
:104AC000832784FEBE850325C4FE1920212CDDB773
:104AD000797106D622D40018232EA4FC232CB4FC12
:104AE000EFE03F84930744FE3E85D5282326A4FEAD
:104AF000832744FEC1EB832784FD99EF0327C4FD80
:104B00008327C4FE63EAE700EFE0DF838325C4FE6A
:104B10000325C4FD05378DA8832784FD81CFB70702
:104B2000002083A747289C4399E3854711A081472C
:104B3000232CF4FCB707002083A687280327C4FD95
:104B40008327C4FEB307F740032684FDBE85368560
:104B5000EFE0EF96EFE00FFFAA879DE7B947232428
:104B6000F4FE832784FEFD8B0547B316F70037E775
:104B700000E0832784FE9583938707088A07BA9706
:104B800094C319A0EFE00FFC0100B250225445611C
:104B90008280797122D60018232EA4FCB70700204A
:104BA00083A707289C4399E3854711A081470327E2
:104BB000C4FD1CC38327C4FD9C4391EBB7070020B1
:104BC00083A70728DC479C432326F4FE19A023264D
:104BD00004FE8327C4FE3E8532544561828079718C
:104BE00006D622D40018232EA4FCEFE05FA02326D3
:104BF000A4FEB707002083A707290327C4FE637814
:104C0000F700E92C8327C4FD054798C329A0832713
:104C1000C4FD23A00700B70700200327C4FE23A874
:104C2000E7288327C4FE3E85B25022544561828026
:104C3000797106D622D40018232EA4FC232CB4FCB0
:104C4000232AC4FC2328D4FC232604FE8327C4FD86
:104C5000032784FDD8C38327C4FD0327C4FD98CB55
:104C6000032784FD832744FD63ECE702032744FD0B
:104C7000832704FD1D8F8327C4FD9C4F6366F700C7
:104C800085472326F4FE81A8B707002003A74728FD
:104C90008327C4FD9107BE853A85EFD0AF8B25A849
:104CA000032744FD832704FD637CF700032784FD6D
:104CB000832704FD6366F70085472326F4FE21A8B9
:104CC000B707002003A707288327C4FD9107BE85E7
:104CD0003A85EFD02F888327C4FE3E85B2502254F8
:104CE00045618280797106D622D40018232A04FCFB
:104CF000232C04FC232E04FC232004FE6DAA83270E
:104D000044FD63DE0702930744FD91072326F4FE6A
:104D10008327C4FE89EB9305D03BB7270200138598
:104D200087D2EFC07FD18327C4FE94438327C4FE7C
:104D3000D8438327C4FE9C47BE853A858296832745
:104D400044FD63C907168327C4FD2324F4FE83278B
:104D500084FEDC4B99C7832784FE91073E85EFD004
:104D60008F89930704FD3E85EFF07FE72322A4FEA1
:104D7000832744FD25476360F71413972700B7572F
:104D8000020093874725BA979C438287832784FE36
:104D900083C7470293E7170013F7F70F832784FEB3
:104DA0002382E702032784FD832784FE9C4FBA9762
:104DB000032784FDBA86032644FEBE85032584FEB0
:104DC000EFF01FE7AA876388070E832784FE83C757
:104DD0004702918B99CF032784FD832784FE9C4F44
:104DE000BA97032644FEBE85032584FEEFF0DFBE9E
:104DF00021A8832784FE83C74702F99B13F7F70F87
:104E0000832784FE2382E702832784FE9C530325A5
:104E100084FE82974DA0832784FE83C74702F99BB7
:104E200013F7F70F832784FE2382E70269A0832705
:104E300084FE83C7470293E7170013F7F70F832712
:104E400084FE2382E702032784FD832784FE98CF14
:104E5000832784FE9C4F89EB93050041B72702000E
:104E6000138587D2EFC05FBD832784FE984F8327C9
:104E700044FEBA97832644FE032644FEBE850325DE
:104E800084FEEFF0FFDA05A8832784FE83C747027C
:104E9000898B89E7032584FEF92931A8832784FEBD
:104EA00083C74702F99B13F7F70F832784FE2382FA
:104EB000E70211A00100B707002083A78728130786
:104EC00044FD0146BA853E85EFD0EFDEAA87E39820
:104ED00007E20100B250225445618280011106CEE2
:104EE00022CC001031A8B707002083A70728DC4791
:104EF0009C432326F4FEFD550325C4FEEFF09FB32B
:104F0000B707002083A707289C43F1FFB7070020BD
:104F100083A707282324F4FEB707002003A7472808
:104F2000B707002023A0E728B7070020032784FE47
:104F300023A2E7280100F24062440561828041110A
:104F400006C622C40008DD2AB707002083A78728E9
:104F5000B9EF138501BDEFC09FD9138541BEEFC0E6
:104F60001FD9B7070020138701BD23A0E728B70783
:104F70000020138741BE23A2E7280146C145114501
:104F8000EFD08F832A87B707002023A4E728B7072D
:104F9000002083A7872881CFB707002003A7872891
:104FA000B7270200938547D43A85EFD03FC46D22DE
:104FB0000100B240224441018280011122CE001042
:104FC000B9472322F4FEC157A301F4FE37E700E0FE
:104FD000832744FEBA97034734FE2380E740B14756
:104FE0002326F4FEC157A305F4FE37E700E083272C
:104FF000C4FEBA970347B4FE2380E740B7F700E04A
:1050000023A00700B7F700E023A20700B7F700E0EE
:105010008146014794C7D8C737F700E0B737020089
:105020009387072801481CCB232A0701B7F700E024
:105030003D4798C30100724405618280011106CE8C
:1050400022CC0010232204FEF32750302322F4FE4A
:10505000832744FE13F737008D47630AF700930553
:10506000600BB72702001385C7D4EFC0FF9C83A74E
:10507000C182BD8B89CB9305B00BB7270200138586
:10508000C7D4EFC07F9BEFF05FF3B1472324F4FE5A
:10509000832784FEFD8B0547B316F70037E700E052
:1050A000832784FE9583938707048A07BA9794C35E
:1050B000B9472326F4FE8327C4FEFD8B0547B316AC
:1050C000F70037E700E08327C4FE95839387070442
:1050D0008A07BA9794C323A40180EFB06FA28147D7
:1050E0003E85F240624405618280011122CE0010AB
:1050F000731101340100B7F700E023A20700EFE0CD
:105100000FF6AA8785C7B9472326F4FE8327C4FE76
:10511000FD8B0547B316F70037E700E08327C4FE91
:105120009583938707088A07BA9794C30100731180
:10513000013401007244056173002030411122C620
:105140000008010083A781801387170023A4E18052
:105150000100324441018280411106C622C4000888
:1051600083A7818089EB9305A010B72702001385E0
:10517000C7D4EFC07F8C83A781801387F7FF23A458
:10518000E18083A7818091E301000100B2402244C5
:1051900041018280397106DE22DC80002326A4FCD6
:1051A000232204FEEFE0EF97B707002083A7C7296B
:1051B00091E3D9248327C4FC85CF41478327C4FCCE
:1051C000BD8BB307F740C1072320F4FE832704FEFD
:1051D00093C7F7FF0327C4FC63EAE7000327C4FC77
:1051E000832704FEBA972326F4FC19A0232604FC87
:1051F0008327C4FC63C707148327C4FC6383071495
:10520000B707002083A7072A0327C4FC63EBE71234
:10521000B7070020938747292324F4FEB70700200F
:1052200083A747292326F4FE11A88327C4FE23243D
:10523000F4FE8327C4FE9C432326F4FE8327C4FE8A
:10524000DC430327C4FC63F6E7008327C4FE9C43CA
:10525000E9FFB707002083A7C7290327C4FE63021D
:10526000F70E832784FE9843C147BA972322F4FEA2
:105270008327C4FE9843832784FE98C38327C4FEF4
:10528000D8438327C4FC1D8FC147860763F6E70414
:105290000327C4FE8327C4FCBA97232EF4FC83277C
:1052A000C4FDBD8B89CB9305C00DB72702001385C4
:1052B000C7D7EFC06FF88327C4FED8438327C4FC49
:1052C0001D8F8327C4FDD8C38327C4FE0327C4FCD6
:1052D000D8C30325C4FD4D24B707002003A7072A20
:1052E0008327C4FEDC431D8FB707002023A0E72AD5
:1052F000B707002003A7072AB707002083A7472A7C
:10530000637AF700B707002003A7072AB707002032
:1053100023A2E72A8327C4FED843B70700805D8F06
:105320008327C4FED8C38327C4FE23A00700B70782
:10533000002083A7872A13871700B707002023A41C
:10534000E72AEFE02F80832744FE99E3EFC04FF177
:10535000832744FEBD8B89CB9305C011B72702007C
:105360001385C7D7EFC04FED832744FE3E85F2502B
:10537000625421618280797106D622D40018232ECE
:10538000A4FC8327C4FD2326F4FE8327C4FDD5CBCC
:10539000C147B307F0400327C4FEBA972326F4FEA3
:1053A0008327C4FE2324F4FE832784FEDC4363CAE0
:1053B00007009305F012B72702001385C7D7EFC087
:1053C000AFE7832784FE9C4389CB93050013B7275F
:1053D00002001385C7D7EFC02FE6832784FEDC4386
:1053E000FD83858B93F7F70FA9CF832784FE9C431A
:1053F000A9EB832784FED843B707008093C7F7FF44
:105400007D8F832784FED8C3EFD0BFF1832784FE2E
:10541000D843B707002083A7072A3E97B707002085
:1054200023A0E72A032584FE812AB707002083A74B
:10543000C72A13871700B707002023A6E72AEFD053
:105440007FF00100B250225445618280411122C692
:105450000008B707002083A7072A3E853244410190
:105460008280411122C60008B707002083A7472A7F
:105470003E85324441018280011122CE0010A16795
:105480002324F4FEB70700209387875D2326F4FECC
:105490008327C4FEBD8B9DC78327C4FEBD0723267B
:1054A000F4FE8327C4FEC19B2326F4FE032784FE5B
:1054B0008327C4FE1D8FB70700209387875DBA97A7
:1054C0002324F4FE8327C4FE2322F4FEB707002022
:1054D000032744FE23AAE728B7070020938747291C
:1054E00023A20700832744FE032784FEBA972326BE
:1054F000F4FEC1470327C4FEB307F7402326F4FE9A
:105500008327C4FEC19B2326F4FE0327C4FEB707EE
:10551000002023AEE728B707002083A7C72923A2CE
:105520000700B707002083A7C72923A00700832708
:1055300044FE2320F4FE832704FE0327C4FE1D8FB0
:10554000832704FED8C3B707002003A7C7298327F2
:1055500004FE98C3832704FED843B707002023A284
:10556000E72A832704FED843B707002023A0E72AB1
:105570000100724405618280797122D60018232EC1
:10558000A4FCB7070020938747292326F4FE31A007
:105590008327C4FE9C432326F4FE8327C4FE9C433A
:1055A0000327C4FDE3E6E7FE8327C4FE2324F4FEBD
:1055B0008327C4FEDC43032784FEBA970327C4FD78
:1055C0006310F7028327C4FED8438327C4FDDC435E
:1055D0003E978327C4FED8C38327C4FE232EF4FC42
:1055E0008327C4FD2324F4FE8327C4FDDC43032763
:1055F00084FE3E978327C4FE9C436316F7048327EB
:10560000C4FE9843B707002083A7C7296305F702A4
:105610008327C4FDD8438327C4FE9C43DC433E97C5
:105620008327C4FDD8C38327C4FE9C4398438327A4
:10563000C4FD98C339A8B707002003A7C72983274B
:10564000C4FD98C339A08327C4FE98438327C4FDB3
:1056500098C30327C4FE8327C4FD6307F70083278D
:10566000C4FE0327C4FD98C3010032544561828003
:10567000011122CE0010AA872317F4FE8357E4FEFF
:10568000A2071397070141878357E4FEA183C2074E
:10569000C183C207C187D98FC207C187C207C1832F
:1056A0003E85724405618280011122CE00102326BE
:1056B000A4FE8327C4FE139787018327C4FE939615
:1056C0008700B707FF00F58F5D8F8327C4FE93D651
:1056D0008700C167938707F0F58F5D8F8327C4FE2E
:1056E000E183D98F3E85724405618280797106D647
:1056F00022D40018232EA4FC232CB4FC232AC4FC9F
:10570000032584FDEF80415E2324A4FE832784FECD
:1057100081E78327C4FDA5A08327C4FD2326F4FECB
:105720002DA88327C4FE03870700832784FD838772
:105730000700631FF700032684FE832584FD0325ED
:10574000C4FEEF80815BAA8781E78327C4FE05A89A
:105750008327C4FE85072326F4FE8327C4FE8387A0
:10576000070089CF0327C4FE832784FE3E97832644
:10577000C4FD832744FDB697E3F5E7FA81473E85EC
:10578000B250225445618280397122DE8000232686
:10579000A4FC2324B4FC8327C4FC2326F4FE231F8B
:1057A00004FC232204FE8327C4FE858B2320F4FE01
:1057B000832704FE8DC7832784FC6352F0020327EE
:1057C000C4FE930717002326F4FE9307E4FD850724
:1057D000182398A3832784FCFD172324F4FC832734
:1057E000C4FE2324F4FE1DA0832784FE1387270014
:1057F0002324E4FE9E233E87832744FEBA97232278
:10580000F4FE832784FCF9172324F4FC032784FC8B
:105810008547E3CBE7FC832784FC6358F0009307BC
:10582000E4FD032784FE182398A38357E4FD3E87F5
:10583000832744FEBA972322F4FE832744FE13D71E
:105840000701832644FEC167FD17F58FBA9723220F
:10585000F4FE832744FE13D70701832644FEC16765
:10586000FD17F58FBA972322F4FE832704FE85C324
:10587000832744FE13978700C167FD177D8F832719
:1058800044FEA18393F7F70FD98F2322F4FE8327D9
:1058900044FEC207C1833E857254216182807971C2
:1058A00006D622D40018232EA4FC232204FE23268D
:1058B00004FE8327C4FD2324F4FE49A0832784FE2D
:1058C000D843832784FEBE27BE853A85EFF0DFEB01
:1058D000AA873E878327C4FEBA972326F4FE832730
:1058E000C4FE13D707018326C4FEC167FD17F58FD9
:1058F000BA972326F4FE832784FEBE27858BC20732
:10590000C18385CB832744FE93B7170093F7F70F26
:105910002322F4FE8327C4FE13978700C167FD1777
:105920007D8F8327C4FEA18393F7F70FD98F23269A
:10593000F4FE832784FE9C432324F4FE832784FE05
:10594000B5FF832744FE85C38327C4FE13978700D2
:10595000C167FD177D8F8327C4FEA18393F7F70FDF
:10596000D98F2326F4FE8327C4FEC207C18393C7C1
:10597000F7FFC207C1833E85B25022544561828041
:10598000011106CE22CC0010232604FEEF20007E5B
:10599000EF508154B92CEF00305EEF10C004EFB02F
:1059A000201AEF804053EFA0707B0100F240624468
:1059B00005618280011122CE0010AA872317F4FE10
:1059C000B707002003A7072B8357E4FEBA973E854D
:1059D000724405618280011122CE00102326A4FEAC
:1059E000B707002083A7072B0327C4FEB307F740A0
:1059F000C207C1833E85724405618280797106D6F3
:105A000022D426D20018232EA4FCB707002083A797
:105A1000072B0327C4FD6377F702B727020093869D
:105A2000C7DA1306F01DB7270200938587DCB72776
:105A30000200138507DEEF70D17E0145EF70011380
:105A4000EF607178B707002083A7472B0327C4FDB9
:105A50006367F702B72702009386C7DA1306001EB2
:105A6000B7270200938587E0B7270200138507DE7A
:105A7000EF70317B0145EF70610FEF60D1748327C8
:105A8000C4FDDC2395C7B72702009386C7DA130647
:105A9000101EB7270200938547E2B727020013853F
:105AA00007DEEF7011780145EF70410CEF60B171C6
:105AB0008327C4FD9A238D679387078063F7E702E6
:105AC000B72702009386C7DA1306401EB7270200E5
:105AD000938507E4B7270200138507DEEF70717422
